{
  "contractName": "LiquidityPool",
  "abi": [
    {
      "inputs": [
        {
          "internalType": "address",
          "name": "_underlyingToken",
          "type": "address"
        },
        {
          "internalType": "address",
          "name": "_governanceToken",
          "type": "address"
        }
      ],
      "stateMutability": "nonpayable",
      "type": "constructor"
    },
    {
      "anonymous": false,
      "inputs": [
        {
          "indexed": true,
          "internalType": "address",
          "name": "owner",
          "type": "address"
        },
        {
          "indexed": true,
          "internalType": "address",
          "name": "spender",
          "type": "address"
        },
        {
          "indexed": false,
          "internalType": "uint256",
          "name": "value",
          "type": "uint256"
        }
      ],
      "name": "Approval",
      "type": "event"
    },
    {
      "anonymous": false,
      "inputs": [
        {
          "indexed": true,
          "internalType": "address",
          "name": "from",
          "type": "address"
        },
        {
          "indexed": true,
          "internalType": "address",
          "name": "to",
          "type": "address"
        },
        {
          "indexed": false,
          "internalType": "uint256",
          "name": "value",
          "type": "uint256"
        }
      ],
      "name": "Transfer",
      "type": "event"
    },
    {
      "inputs": [],
      "name": "REWARD_PER_BLOCK",
      "outputs": [
        {
          "internalType": "uint256",
          "name": "",
          "type": "uint256"
        }
      ],
      "stateMutability": "view",
      "type": "function"
    },
    {
      "inputs": [
        {
          "internalType": "address",
          "name": "owner",
          "type": "address"
        },
        {
          "internalType": "address",
          "name": "spender",
          "type": "address"
        }
      ],
      "name": "allowance",
      "outputs": [
        {
          "internalType": "uint256",
          "name": "",
          "type": "uint256"
        }
      ],
      "stateMutability": "view",
      "type": "function"
    },
    {
      "inputs": [
        {
          "internalType": "address",
          "name": "spender",
          "type": "address"
        },
        {
          "internalType": "uint256",
          "name": "amount",
          "type": "uint256"
        }
      ],
      "name": "approve",
      "outputs": [
        {
          "internalType": "bool",
          "name": "",
          "type": "bool"
        }
      ],
      "stateMutability": "nonpayable",
      "type": "function"
    },
    {
      "inputs": [
        {
          "internalType": "address",
          "name": "account",
          "type": "address"
        }
      ],
      "name": "balanceOf",
      "outputs": [
        {
          "internalType": "uint256",
          "name": "",
          "type": "uint256"
        }
      ],
      "stateMutability": "view",
      "type": "function"
    },
    {
      "inputs": [
        {
          "internalType": "address",
          "name": "",
          "type": "address"
        }
      ],
      "name": "checkpoints",
      "outputs": [
        {
          "internalType": "uint256",
          "name": "",
          "type": "uint256"
        }
      ],
      "stateMutability": "view",
      "type": "function"
    },
    {
      "inputs": [],
      "name": "decimals",
      "outputs": [
        {
          "internalType": "uint8",
          "name": "",
          "type": "uint8"
        }
      ],
      "stateMutability": "view",
      "type": "function"
    },
    {
      "inputs": [
        {
          "internalType": "address",
          "name": "spender",
          "type": "address"
        },
        {
          "internalType": "uint256",
          "name": "subtractedValue",
          "type": "uint256"
        }
      ],
      "name": "decreaseAllowance",
      "outputs": [
        {
          "internalType": "bool",
          "name": "",
          "type": "bool"
        }
      ],
      "stateMutability": "nonpayable",
      "type": "function"
    },
    {
      "inputs": [],
      "name": "governanceToken",
      "outputs": [
        {
          "internalType": "contract GovernanceToken",
          "name": "",
          "type": "address"
        }
      ],
      "stateMutability": "view",
      "type": "function"
    },
    {
      "inputs": [
        {
          "internalType": "address",
          "name": "spender",
          "type": "address"
        },
        {
          "internalType": "uint256",
          "name": "addedValue",
          "type": "uint256"
        }
      ],
      "name": "increaseAllowance",
      "outputs": [
        {
          "internalType": "bool",
          "name": "",
          "type": "bool"
        }
      ],
      "stateMutability": "nonpayable",
      "type": "function"
    },
    {
      "inputs": [],
      "name": "name",
      "outputs": [
        {
          "internalType": "string",
          "name": "",
          "type": "string"
        }
      ],
      "stateMutability": "view",
      "type": "function"
    },
    {
      "inputs": [],
      "name": "symbol",
      "outputs": [
        {
          "internalType": "string",
          "name": "",
          "type": "string"
        }
      ],
      "stateMutability": "view",
      "type": "function"
    },
    {
      "inputs": [],
      "name": "totalSupply",
      "outputs": [
        {
          "internalType": "uint256",
          "name": "",
          "type": "uint256"
        }
      ],
      "stateMutability": "view",
      "type": "function"
    },
    {
      "inputs": [
        {
          "internalType": "address",
          "name": "recipient",
          "type": "address"
        },
        {
          "internalType": "uint256",
          "name": "amount",
          "type": "uint256"
        }
      ],
      "name": "transfer",
      "outputs": [
        {
          "internalType": "bool",
          "name": "",
          "type": "bool"
        }
      ],
      "stateMutability": "nonpayable",
      "type": "function"
    },
    {
      "inputs": [
        {
          "internalType": "address",
          "name": "sender",
          "type": "address"
        },
        {
          "internalType": "address",
          "name": "recipient",
          "type": "address"
        },
        {
          "internalType": "uint256",
          "name": "amount",
          "type": "uint256"
        }
      ],
      "name": "transferFrom",
      "outputs": [
        {
          "internalType": "bool",
          "name": "",
          "type": "bool"
        }
      ],
      "stateMutability": "nonpayable",
      "type": "function"
    },
    {
      "inputs": [],
      "name": "underlyingToken",
      "outputs": [
        {
          "internalType": "contract UnderlyingToken",
          "name": "",
          "type": "address"
        }
      ],
      "stateMutability": "view",
      "type": "function"
    },
    {
      "inputs": [
        {
          "internalType": "uint256",
          "name": "amount",
          "type": "uint256"
        }
      ],
      "name": "deposit",
      "outputs": [],
      "stateMutability": "nonpayable",
      "type": "function"
    },
    {
      "inputs": [
        {
          "internalType": "uint256",
          "name": "amount",
          "type": "uint256"
        }
      ],
      "name": "withdraw",
      "outputs": [],
      "stateMutability": "nonpayable",
      "type": "function"
    }
  ],
  "bytecode": "0x60806040523480156200001157600080fd5b506040516200235a3803806200235a833981810160405281019062000037919062000228565b6040518060400160405280600381526020017f4c544b00000000000000000000000000000000000000000000000000000000008152506040518060400160405280600881526020017f4c5020546f6b656e0000000000000000000000000000000000000000000000008152508160039080519060200190620000bb92919062000161565b508060049080519060200190620000d492919062000161565b50505081600660006101000a81548173ffffffffffffffffffffffffffffffffffffffff021916908373ffffffffffffffffffffffffffffffffffffffff16021790555080600760006101000a81548173ffffffffffffffffffffffffffffffffffffffff021916908373ffffffffffffffffffffffffffffffffffffffff16021790555050506200031c565b8280546200016f906200029d565b90600052602060002090601f016020900481019282620001935760008555620001df565b82601f10620001ae57805160ff1916838001178555620001df565b82800160010185558215620001df579182015b82811115620001de578251825591602001919060010190620001c1565b5b509050620001ee9190620001f2565b5090565b5b808211156200020d576000816000905550600101620001f3565b5090565b600081519050620002228162000302565b92915050565b600080604083850312156200023c57600080fd5b60006200024c8582860162000211565b92505060206200025f8582860162000211565b9150509250929050565b600062000276826200027d565b9050919050565b600073ffffffffffffffffffffffffffffffffffffffff82169050919050565b60006002820490506001821680620002b657607f821691505b60208210811415620002cd57620002cc620002d3565b5b50919050565b7f4e487b7100000000000000000000000000000000000000000000000000000000600052602260045260246000fd5b6200030d8162000269565b81146200031957600080fd5b50565b61202e806200032c6000396000f3fe608060405234801561001057600080fd5b506004361061010b5760003560e01c806370a08231116100a2578063a9059cbb11610071578063a9059cbb146102d0578063b6b55f2514610300578063dbb51d6e1461031c578063dd62ed3e1461034c578063f96dae0a1461037c5761010b565b806370a082311461023457806395d89b4114610264578063975532dc14610282578063a457c2d7146102a05761010b565b80632495a599116100de5780632495a599146101ac5780632e1a7d4d146101ca578063313ce567146101e657806339509351146102045761010b565b806306fdde0314610110578063095ea7b31461012e57806318160ddd1461015e57806323b872dd1461017c575b600080fd5b61011861039a565b6040516101259190611871565b60405180910390f35b6101486004803603810190610143919061151e565b61042c565b6040516101559190611820565b60405180910390f35b61016661044a565b60405161017391906119f3565b60405180910390f35b610196600480360381019061019191906114cf565b610454565b6040516101a39190611820565b60405180910390f35b6101b4610555565b6040516101c19190611856565b60405180910390f35b6101e460048036038101906101df9190611583565b61057b565b005b6101ee61068c565b6040516101fb9190611a0e565b60405180910390f35b61021e6004803603810190610219919061151e565b610695565b60405161022b9190611820565b60405180910390f35b61024e6004803603810190610249919061146a565b610741565b60405161025b91906119f3565b60405180910390f35b61026c610789565b6040516102799190611871565b60405180910390f35b61028a61081b565b60405161029791906119f3565b60405180910390f35b6102ba60048036038101906102b5919061151e565b610820565b6040516102c79190611820565b60405180910390f35b6102ea60048036038101906102e5919061151e565b610914565b6040516102f79190611820565b60405180910390f35b61031a60048036038101906103159190611583565b610932565b005b6103366004803603810190610331919061146a565b610a87565b60405161034391906119f3565b60405180910390f35b61036660048036038101906103619190611493565b610a9f565b60405161037391906119f3565b60405180910390f35b610384610b26565b604051610391919061183b565b60405180910390f35b6060600380546103a990611bf9565b80601f01602080910402602001604051908101604052809291908181526020018280546103d590611bf9565b80156104225780601f106103f757610100808354040283529160200191610422565b820191906000526020600020905b81548152906001019060200180831161040557829003601f168201915b5050505050905090565b6000610440610439610b4c565b8484610b54565b6001905092915050565b6000600254905090565b6000610461848484610d1f565b6000600160008673ffffffffffffffffffffffffffffffffffffffff1673ffffffffffffffffffffffffffffffffffffffff16815260200190815260200160002060006104ac610b4c565b73ffffffffffffffffffffffffffffffffffffffff1673ffffffffffffffffffffffffffffffffffffffff1681526020019081526020016000205490508281101561052c576040517f08c379a000000000000000000000000000000000000000000000000000000000815260040161052390611933565b60405180910390fd5b61054985610538610b4c565b85846105449190611af5565b610b54565b60019150509392505050565b600660009054906101000a900473ffffffffffffffffffffffffffffffffffffffff1681565b8061058533610741565b10156105c6576040517f08c379a00000000000000000000000000000000000000000000000000000000081526004016105bd90611913565b60405180910390fd5b6105cf33610f9e565b600660009054906101000a900473ffffffffffffffffffffffffffffffffffffffff1673ffffffffffffffffffffffffffffffffffffffff1663a9059cbb33836040518363ffffffff1660e01b815260040161062c9291906117f7565b602060405180830381600087803b15801561064657600080fd5b505af115801561065a573d6000803e3d6000fd5b505050506040513d601f19601f8201168201806040525081019061067e919061155a565b5061068933826110fe565b50565b60006012905090565b60006107376106a2610b4c565b8484600160006106b0610b4c565b73ffffffffffffffffffffffffffffffffffffffff1673ffffffffffffffffffffffffffffffffffffffff16815260200190815260200160002060008873ffffffffffffffffffffffffffffffffffffffff1673ffffffffffffffffffffffffffffffffffffffff168152602001908152602001600020546107329190611a45565b610b54565b6001905092915050565b60008060008373ffffffffffffffffffffffffffffffffffffffff1673ffffffffffffffffffffffffffffffffffffffff168152602001908152602001600020549050919050565b60606004805461079890611bf9565b80601f01602080910402602001604051908101604052809291908181526020018280546107c490611bf9565b80156108115780601f106107e657610100808354040283529160200191610811565b820191906000526020600020905b8154815290600101906020018083116107f457829003601f168201915b5050505050905090565b600181565b6000806001600061082f610b4c565b73ffffffffffffffffffffffffffffffffffffffff1673ffffffffffffffffffffffffffffffffffffffff16815260200190815260200160002060008573ffffffffffffffffffffffffffffffffffffffff1673ffffffffffffffffffffffffffffffffffffffff168152602001908152602001600020549050828110156108ec576040517f08c379a00000000000000000000000000000000000000000000000000000000081526004016108e3906119b3565b60405180910390fd5b6109096108f7610b4c565b8585846109049190611af5565b610b54565b600191505092915050565b6000610928610921610b4c565b8484610d1f565b6001905092915050565b6000600560003373ffffffffffffffffffffffffffffffffffffffff1673ffffffffffffffffffffffffffffffffffffffff1681526020019081526020016000205414156109bf5743600560003373ffffffffffffffffffffffffffffffffffffffff1673ffffffffffffffffffffffffffffffffffffffff168152602001908152602001600020819055505b6109c833610f9e565b600660009054906101000a900473ffffffffffffffffffffffffffffffffffffffff1673ffffffffffffffffffffffffffffffffffffffff166323b872dd3330846040518463ffffffff1660e01b8152600401610a27939291906117c0565b602060405180830381600087803b158015610a4157600080fd5b505af1158015610a55573d6000803e3d6000fd5b505050506040513d601f19601f82011682018060405250810190610a79919061155a565b50610a8433826112d2565b50565b60056020528060005260406000206000915090505481565b6000600160008473ffffffffffffffffffffffffffffffffffffffff1673ffffffffffffffffffffffffffffffffffffffff16815260200190815260200160002060008373ffffffffffffffffffffffffffffffffffffffff1673ffffffffffffffffffffffffffffffffffffffff16815260200190815260200160002054905092915050565b600760009054906101000a900473ffffffffffffffffffffffffffffffffffffffff1681565b600033905090565b600073ffffffffffffffffffffffffffffffffffffffff168373ffffffffffffffffffffffffffffffffffffffff161415610bc4576040517f08c379a0000000000000000000000000000000000000000000000000000000008152600401610bbb90611993565b60405180910390fd5b600073ffffffffffffffffffffffffffffffffffffffff168273ffffffffffffffffffffffffffffffffffffffff161415610c34576040517f08c379a0000000000000000000000000000000000000000000000000000000008152600401610c2b906118d3565b60405180910390fd5b80600160008573ffffffffffffffffffffffffffffffffffffffff1673ffffffffffffffffffffffffffffffffffffffff16815260200190815260200160002060008473ffffffffffffffffffffffffffffffffffffffff1673ffffffffffffffffffffffffffffffffffffffff168152602001908152602001600020819055508173ffffffffffffffffffffffffffffffffffffffff168373ffffffffffffffffffffffffffffffffffffffff167f8c5be1e5ebec7d5bd14f71427d1e84f3dd0314c0f7b2291e5b200ac8c7c3b92583604051610d1291906119f3565b60405180910390a3505050565b600073ffffffffffffffffffffffffffffffffffffffff168373ffffffffffffffffffffffffffffffffffffffff161415610d8f576040517f08c379a0000000000000000000000000000000000000000000000000000000008152600401610d8690611973565b60405180910390fd5b600073ffffffffffffffffffffffffffffffffffffffff168273ffffffffffffffffffffffffffffffffffffffff161415610dff576040517f08c379a0000000000000000000000000000000000000000000000000000000008152600401610df690611893565b60405180910390fd5b610e0a838383611426565b60008060008573ffffffffffffffffffffffffffffffffffffffff1673ffffffffffffffffffffffffffffffffffffffff16815260200190815260200160002054905081811015610e90576040517f08c379a0000000000000000000000000000000000000000000000000000000008152600401610e87906118f3565b60405180910390fd5b8181610e9c9190611af5565b6000808673ffffffffffffffffffffffffffffffffffffffff1673ffffffffffffffffffffffffffffffffffffffff16815260200190815260200160002081905550816000808573ffffffffffffffffffffffffffffffffffffffff1673ffffffffffffffffffffffffffffffffffffffff1681526020019081526020016000206000828254610f2c9190611a45565b925050819055508273ffffffffffffffffffffffffffffffffffffffff168473ffffffffffffffffffffffffffffffffffffffff167fddf252ad1be2c89b69c2b068fc378daa952ba7f163c4a11628f55a4df523b3ef84604051610f9091906119f3565b60405180910390a350505050565b6000600560008373ffffffffffffffffffffffffffffffffffffffff1673ffffffffffffffffffffffffffffffffffffffff16815260200190815260200160002054905060008143610ff09190611af5565b11156110fa5760006001826110059190611a9b565b436110109190611af5565b61101984610741565b6110239190611a9b565b9050600760009054906101000a900473ffffffffffffffffffffffffffffffffffffffff1673ffffffffffffffffffffffffffffffffffffffff166340c10f1984836040518363ffffffff1660e01b81526004016110829291906117f7565b600060405180830381600087803b15801561109c57600080fd5b505af11580156110b0573d6000803e3d6000fd5b5050505043600560008573ffffffffffffffffffffffffffffffffffffffff1673ffffffffffffffffffffffffffffffffffffffff16815260200190815260200160002081905550505b5050565b600073ffffffffffffffffffffffffffffffffffffffff168273ffffffffffffffffffffffffffffffffffffffff16141561116e576040517f08c379a000000000000000000000000000000000000000000000000000000000815260040161116590611953565b60405180910390fd5b61117a82600083611426565b60008060008473ffffffffffffffffffffffffffffffffffffffff1673ffffffffffffffffffffffffffffffffffffffff16815260200190815260200160002054905081811015611200576040517f08c379a00000000000000000000000000000000000000000000000000000000081526004016111f7906118b3565b60405180910390fd5b818161120c9190611af5565b6000808573ffffffffffffffffffffffffffffffffffffffff1673ffffffffffffffffffffffffffffffffffffffff1681526020019081526020016000208190555081600260008282546112609190611af5565b92505081905550600073ffffffffffffffffffffffffffffffffffffffff168373ffffffffffffffffffffffffffffffffffffffff167fddf252ad1be2c89b69c2b068fc378daa952ba7f163c4a11628f55a4df523b3ef846040516112c591906119f3565b60405180910390a3505050565b600073ffffffffffffffffffffffffffffffffffffffff168273ffffffffffffffffffffffffffffffffffffffff161415611342576040517f08c379a0000000000000000000000000000000000000000000000000000000008152600401611339906119d3565b60405180910390fd5b61134e60008383611426565b80600260008282546113609190611a45565b92505081905550806000808473ffffffffffffffffffffffffffffffffffffffff1673ffffffffffffffffffffffffffffffffffffffff16815260200190815260200160002060008282546113b59190611a45565b925050819055508173ffffffffffffffffffffffffffffffffffffffff16600073ffffffffffffffffffffffffffffffffffffffff167fddf252ad1be2c89b69c2b068fc378daa952ba7f163c4a11628f55a4df523b3ef8360405161141a91906119f3565b60405180910390a35050565b505050565b60008135905061143a81611fb3565b92915050565b60008151905061144f81611fca565b92915050565b60008135905061146481611fe1565b92915050565b60006020828403121561147c57600080fd5b600061148a8482850161142b565b91505092915050565b600080604083850312156114a657600080fd5b60006114b48582860161142b565b92505060206114c58582860161142b565b9150509250929050565b6000806000606084860312156114e457600080fd5b60006114f28682870161142b565b93505060206115038682870161142b565b925050604061151486828701611455565b9150509250925092565b6000806040838503121561153157600080fd5b600061153f8582860161142b565b925050602061155085828601611455565b9150509250929050565b60006020828403121561156c57600080fd5b600061157a84828501611440565b91505092915050565b60006020828403121561159557600080fd5b60006115a384828501611455565b91505092915050565b6115b581611b29565b82525050565b6115c481611b3b565b82525050565b6115d381611b7e565b82525050565b6115e281611ba2565b82525050565b60006115f382611a29565b6115fd8185611a34565b935061160d818560208601611bc6565b61161681611c89565b840191505092915050565b600061162e602383611a34565b915061163982611c9a565b604082019050919050565b6000611651602283611a34565b915061165c82611ce9565b604082019050919050565b6000611674602283611a34565b915061167f82611d38565b604082019050919050565b6000611697602683611a34565b91506116a282611d87565b604082019050919050565b60006116ba601383611a34565b91506116c582611dd6565b602082019050919050565b60006116dd602883611a34565b91506116e882611dff565b604082019050919050565b6000611700602183611a34565b915061170b82611e4e565b604082019050919050565b6000611723602583611a34565b915061172e82611e9d565b604082019050919050565b6000611746602483611a34565b915061175182611eec565b604082019050919050565b6000611769602583611a34565b915061177482611f3b565b604082019050919050565b600061178c601f83611a34565b915061179782611f8a565b602082019050919050565b6117ab81611b67565b82525050565b6117ba81611b71565b82525050565b60006060820190506117d560008301866115ac565b6117e260208301856115ac565b6117ef60408301846117a2565b949350505050565b600060408201905061180c60008301856115ac565b61181960208301846117a2565b9392505050565b600060208201905061183560008301846115bb565b92915050565b600060208201905061185060008301846115ca565b92915050565b600060208201905061186b60008301846115d9565b92915050565b6000602082019050818103600083015261188b81846115e8565b905092915050565b600060208201905081810360008301526118ac81611621565b9050919050565b600060208201905081810360008301526118cc81611644565b9050919050565b600060208201905081810360008301526118ec81611667565b9050919050565b6000602082019050818103600083015261190c8161168a565b9050919050565b6000602082019050818103600083015261192c816116ad565b9050919050565b6000602082019050818103600083015261194c816116d0565b9050919050565b6000602082019050818103600083015261196c816116f3565b9050919050565b6000602082019050818103600083015261198c81611716565b9050919050565b600060208201905081810360008301526119ac81611739565b9050919050565b600060208201905081810360008301526119cc8161175c565b9050919050565b600060208201905081810360008301526119ec8161177f565b9050919050565b6000602082019050611a0860008301846117a2565b92915050565b6000602082019050611a2360008301846117b1565b92915050565b600081519050919050565b600082825260208201905092915050565b6000611a5082611b67565b9150611a5b83611b67565b9250827fffffffffffffffffffffffffffffffffffffffffffffffffffffffffffffffff03821115611a9057611a8f611c2b565b5b828201905092915050565b6000611aa682611b67565b9150611ab183611b67565b9250817fffffffffffffffffffffffffffffffffffffffffffffffffffffffffffffffff0483118215151615611aea57611ae9611c2b565b5b828202905092915050565b6000611b0082611b67565b9150611b0b83611b67565b925082821015611b1e57611b1d611c2b565b5b828203905092915050565b6000611b3482611b47565b9050919050565b60008115159050919050565b600073ffffffffffffffffffffffffffffffffffffffff82169050919050565b6000819050919050565b600060ff82169050919050565b6000611b8982611b90565b9050919050565b6000611b9b82611b47565b9050919050565b6000611bad82611bb4565b9050919050565b6000611bbf82611b47565b9050919050565b60005b83811015611be4578082015181840152602081019050611bc9565b83811115611bf3576000848401525b50505050565b60006002820490506001821680611c1157607f821691505b60208210811415611c2557611c24611c5a565b5b50919050565b7f4e487b7100000000000000000000000000000000000000000000000000000000600052601160045260246000fd5b7f4e487b7100000000000000000000000000000000000000000000000000000000600052602260045260246000fd5b6000601f19601f8301169050919050565b7f45524332303a207472616e7366657220746f20746865207a65726f206164647260008201527f6573730000000000000000000000000000000000000000000000000000000000602082015250565b7f45524332303a206275726e20616d6f756e7420657863656564732062616c616e60008201527f6365000000000000000000000000000000000000000000000000000000000000602082015250565b7f45524332303a20617070726f766520746f20746865207a65726f20616464726560008201527f7373000000000000000000000000000000000000000000000000000000000000602082015250565b7f45524332303a207472616e7366657220616d6f756e742065786365656473206260008201527f616c616e63650000000000000000000000000000000000000000000000000000602082015250565b7f6e6f7420656e6f756768204c5020746f6b656e00000000000000000000000000600082015250565b7f45524332303a207472616e7366657220616d6f756e742065786365656473206160008201527f6c6c6f77616e6365000000000000000000000000000000000000000000000000602082015250565b7f45524332303a206275726e2066726f6d20746865207a65726f2061646472657360008201527f7300000000000000000000000000000000000000000000000000000000000000602082015250565b7f45524332303a207472616e736665722066726f6d20746865207a65726f20616460008201527f6472657373000000000000000000000000000000000000000000000000000000602082015250565b7f45524332303a20617070726f76652066726f6d20746865207a65726f2061646460008201527f7265737300000000000000000000000000000000000000000000000000000000602082015250565b7f45524332303a2064656372656173656420616c6c6f77616e63652062656c6f7760008201527f207a65726f000000000000000000000000000000000000000000000000000000602082015250565b7f45524332303a206d696e7420746f20746865207a65726f206164647265737300600082015250565b611fbc81611b29565b8114611fc757600080fd5b50565b611fd381611b3b565b8114611fde57600080fd5b50565b611fea81611b67565b8114611ff557600080fd5b5056fea2646970667358221220a9281119e325a72f2e34966b422f21b99e239efba4c272ba250b60d0eeeb8f1d64736f6c63430008030033",
  "immutableReferences": {},
  "source": "// SPDX-License-Identifier: UNLICENSED\npragma solidity ^0.8.0;\n\nimport \"./UnderlyingToken.sol\";\nimport \"./LpToken.sol\";\nimport \"./GovernanceToken.sol\";\n\ncontract LiquidityPool is LpToken {\n    mapping(address => uint256) public checkpoints; //this will be used to calculate the governance token\n    // create pointers\n    UnderlyingToken public underlyingToken;\n    GovernanceToken public governanceToken;\n    uint256 public constant REWARD_PER_BLOCK = 1;\n\n    constructor(address _underlyingToken, address _governanceToken) {\n        // instantiate our pointers. This will help us communicate with teh contracts\n        underlyingToken = UnderlyingToken(_underlyingToken);\n        governanceToken = GovernanceToken(_governanceToken);\n    }\n\n    function deposit(uint256 amount) external {\n        // checkpoints are used as a reference to distribute the governance token reward.\n        // Example, if an investor invests at block 10 and withdraws t block 50 then he'll be given a token equivalent to 5 blocks\n        if (checkpoints[msg.sender] == 0) {\n            checkpoints[msg.sender] = block.number;\n        }\n        _distributeReward(msg.sender);\n        underlyingToken.transferFrom(msg.sender, address(this), amount);\n        // mint some LpToken for the investor\n        _mint(msg.sender, amount);\n    }\n\n    function withdraw(uint256 amount) external {\n        // here the amount is for user LpToken\n        require(balanceOf(msg.sender) >= amount, \"not enough LP token\");\n        _distributeReward(msg.sender);\n        underlyingToken.transfer(msg.sender, amount);\n        _burn(msg.sender, amount);\n    }\n\n    //we base our distribution amount on the balance of LpToken\n    //Note: In this project the exchange rate between the LpToken and the underlying token is always 1, but in a real DeFi protocol it is much more complex than that (You may have to multiply the LpToken balance by the exchange rate to get the balance in underlying token)\n    function _distributeReward(address beneficiary) internal {\n        // get the checkpoint of the beneficiary\n        uint256 checkpoint = checkpoints[beneficiary];\n        if (block.number - checkpoint > 0) {\n            uint256 distributionAmount = balanceOf(beneficiary) * (block.number - checkpoint * REWARD_PER_BLOCK);\n            governanceToken.mint(beneficiary, distributionAmount);\n\n            // update the checkpoint\n            checkpoints[beneficiary] = block.number;\n        }\n    }\n}\n",
  "sourcePath": "/var/www/html/ETB_updated/ETb_flair/Liquidity_Mining/contracts/LiquidityPool.sol",
  "compiler": {
    "name": "solc",
    "version": "0.8.3+commit.8d00100c.Emscripten.clang"
  },
  "schemaVersion": "3.3.4",
  "updatedAt": "2021-04-12T11:23:23.211Z",
  "devdoc": {
    "kind": "dev",
    "methods": {
      "allowance(address,address)": {
        "details": "See {IERC20-allowance}."
      },
      "approve(address,uint256)": {
        "details": "See {IERC20-approve}. Requirements: - `spender` cannot be the zero address."
      },
      "balanceOf(address)": {
        "details": "See {IERC20-balanceOf}."
      },
      "decimals()": {
        "details": "Returns the number of decimals used to get its user representation. For example, if `decimals` equals `2`, a balance of `505` tokens should be displayed to a user as `5,05` (`505 / 10 ** 2`). Tokens usually opt for a value of 18, imitating the relationship between Ether and Wei. This is the value {ERC20} uses, unless this function is overloaded; NOTE: This information is only used for _display_ purposes: it in no way affects any of the arithmetic of the contract, including {IERC20-balanceOf} and {IERC20-transfer}."
      },
      "decreaseAllowance(address,uint256)": {
        "details": "Atomically decreases the allowance granted to `spender` by the caller. This is an alternative to {approve} that can be used as a mitigation for problems described in {IERC20-approve}. Emits an {Approval} event indicating the updated allowance. Requirements: - `spender` cannot be the zero address. - `spender` must have allowance for the caller of at least `subtractedValue`."
      },
      "increaseAllowance(address,uint256)": {
        "details": "Atomically increases the allowance granted to `spender` by the caller. This is an alternative to {approve} that can be used as a mitigation for problems described in {IERC20-approve}. Emits an {Approval} event indicating the updated allowance. Requirements: - `spender` cannot be the zero address."
      },
      "name()": {
        "details": "Returns the name of the token."
      },
      "symbol()": {
        "details": "Returns the symbol of the token, usually a shorter version of the name."
      },
      "totalSupply()": {
        "details": "See {IERC20-totalSupply}."
      },
      "transfer(address,uint256)": {
        "details": "See {IERC20-transfer}. Requirements: - `recipient` cannot be the zero address. - the caller must have a balance of at least `amount`."
      },
      "transferFrom(address,address,uint256)": {
        "details": "See {IERC20-transferFrom}. Emits an {Approval} event indicating the updated allowance. This is not required by the EIP. See the note at the beginning of {ERC20}. Requirements: - `sender` and `recipient` cannot be the zero address. - `sender` must have a balance of at least `amount`. - the caller must have allowance for ``sender``'s tokens of at least `amount`."
      }
    },
    "version": 1
  },
  "userdoc": {
    "kind": "user",
    "methods": {},
    "version": 1
  }
}