{
  "contractName": "LiquidityPool",
  "abi": [
    {
      "inputs": [
        {
          "internalType": "address",
          "name": "_underlyingToken",
          "type": "address"
        },
        {
          "internalType": "address",
          "name": "_governanceToken",
          "type": "address"
        }
      ],
      "stateMutability": "nonpayable",
      "type": "constructor"
    },
    {
      "anonymous": false,
      "inputs": [
        {
          "indexed": true,
          "internalType": "address",
          "name": "owner",
          "type": "address"
        },
        {
          "indexed": true,
          "internalType": "address",
          "name": "spender",
          "type": "address"
        },
        {
          "indexed": false,
          "internalType": "uint256",
          "name": "value",
          "type": "uint256"
        }
      ],
      "name": "Approval",
      "type": "event"
    },
    {
      "anonymous": false,
      "inputs": [
        {
          "indexed": true,
          "internalType": "address",
          "name": "from",
          "type": "address"
        },
        {
          "indexed": true,
          "internalType": "address",
          "name": "to",
          "type": "address"
        },
        {
          "indexed": false,
          "internalType": "uint256",
          "name": "value",
          "type": "uint256"
        }
      ],
      "name": "Transfer",
      "type": "event"
    },
    {
      "inputs": [],
      "name": "REWARD_PER_BLOCK",
      "outputs": [
        {
          "internalType": "uint256",
          "name": "",
          "type": "uint256"
        }
      ],
      "stateMutability": "view",
      "type": "function",
      "constant": true
    },
    {
      "inputs": [
        {
          "internalType": "address",
          "name": "owner",
          "type": "address"
        },
        {
          "internalType": "address",
          "name": "spender",
          "type": "address"
        }
      ],
      "name": "allowance",
      "outputs": [
        {
          "internalType": "uint256",
          "name": "",
          "type": "uint256"
        }
      ],
      "stateMutability": "view",
      "type": "function",
      "constant": true
    },
    {
      "inputs": [
        {
          "internalType": "address",
          "name": "spender",
          "type": "address"
        },
        {
          "internalType": "uint256",
          "name": "amount",
          "type": "uint256"
        }
      ],
      "name": "approve",
      "outputs": [
        {
          "internalType": "bool",
          "name": "",
          "type": "bool"
        }
      ],
      "stateMutability": "nonpayable",
      "type": "function"
    },
    {
      "inputs": [
        {
          "internalType": "address",
          "name": "account",
          "type": "address"
        }
      ],
      "name": "balanceOf",
      "outputs": [
        {
          "internalType": "uint256",
          "name": "",
          "type": "uint256"
        }
      ],
      "stateMutability": "view",
      "type": "function",
      "constant": true
    },
    {
      "inputs": [
        {
          "internalType": "address",
          "name": "",
          "type": "address"
        }
      ],
      "name": "checkpoints",
      "outputs": [
        {
          "internalType": "uint256",
          "name": "",
          "type": "uint256"
        }
      ],
      "stateMutability": "view",
      "type": "function",
      "constant": true
    },
    {
      "inputs": [],
      "name": "decimals",
      "outputs": [
        {
          "internalType": "uint8",
          "name": "",
          "type": "uint8"
        }
      ],
      "stateMutability": "view",
      "type": "function",
      "constant": true
    },
    {
      "inputs": [
        {
          "internalType": "address",
          "name": "spender",
          "type": "address"
        },
        {
          "internalType": "uint256",
          "name": "subtractedValue",
          "type": "uint256"
        }
      ],
      "name": "decreaseAllowance",
      "outputs": [
        {
          "internalType": "bool",
          "name": "",
          "type": "bool"
        }
      ],
      "stateMutability": "nonpayable",
      "type": "function"
    },
    {
      "inputs": [],
      "name": "governanceToken",
      "outputs": [
        {
          "internalType": "contract GovernanceToken",
          "name": "",
          "type": "address"
        }
      ],
      "stateMutability": "view",
      "type": "function",
      "constant": true
    },
    {
      "inputs": [
        {
          "internalType": "address",
          "name": "spender",
          "type": "address"
        },
        {
          "internalType": "uint256",
          "name": "addedValue",
          "type": "uint256"
        }
      ],
      "name": "increaseAllowance",
      "outputs": [
        {
          "internalType": "bool",
          "name": "",
          "type": "bool"
        }
      ],
      "stateMutability": "nonpayable",
      "type": "function"
    },
    {
      "inputs": [],
      "name": "name",
      "outputs": [
        {
          "internalType": "string",
          "name": "",
          "type": "string"
        }
      ],
      "stateMutability": "view",
      "type": "function",
      "constant": true
    },
    {
      "inputs": [],
      "name": "symbol",
      "outputs": [
        {
          "internalType": "string",
          "name": "",
          "type": "string"
        }
      ],
      "stateMutability": "view",
      "type": "function",
      "constant": true
    },
    {
      "inputs": [],
      "name": "totalPool",
      "outputs": [
        {
          "internalType": "uint256",
          "name": "",
          "type": "uint256"
        }
      ],
      "stateMutability": "view",
      "type": "function",
      "constant": true
    },
    {
      "inputs": [],
      "name": "totalSupply",
      "outputs": [
        {
          "internalType": "uint256",
          "name": "",
          "type": "uint256"
        }
      ],
      "stateMutability": "view",
      "type": "function",
      "constant": true
    },
    {
      "inputs": [
        {
          "internalType": "address",
          "name": "recipient",
          "type": "address"
        },
        {
          "internalType": "uint256",
          "name": "amount",
          "type": "uint256"
        }
      ],
      "name": "transfer",
      "outputs": [
        {
          "internalType": "bool",
          "name": "",
          "type": "bool"
        }
      ],
      "stateMutability": "nonpayable",
      "type": "function"
    },
    {
      "inputs": [
        {
          "internalType": "address",
          "name": "sender",
          "type": "address"
        },
        {
          "internalType": "address",
          "name": "recipient",
          "type": "address"
        },
        {
          "internalType": "uint256",
          "name": "amount",
          "type": "uint256"
        }
      ],
      "name": "transferFrom",
      "outputs": [
        {
          "internalType": "bool",
          "name": "",
          "type": "bool"
        }
      ],
      "stateMutability": "nonpayable",
      "type": "function"
    },
    {
      "inputs": [],
      "name": "underlyingToken",
      "outputs": [
        {
          "internalType": "contract UnderlyingToken",
          "name": "",
          "type": "address"
        }
      ],
      "stateMutability": "view",
      "type": "function",
      "constant": true
    },
    {
      "inputs": [
        {
          "internalType": "uint256",
          "name": "",
          "type": "uint256"
        }
      ],
      "name": "users",
      "outputs": [
        {
          "internalType": "address",
          "name": "",
          "type": "address"
        }
      ],
      "stateMutability": "view",
      "type": "function",
      "constant": true
    },
    {
      "inputs": [],
      "name": "getUsers",
      "outputs": [
        {
          "internalType": "address[]",
          "name": "",
          "type": "address[]"
        }
      ],
      "stateMutability": "view",
      "type": "function",
      "constant": true
    },
    {
      "inputs": [],
      "name": "underTokenBalance",
      "outputs": [
        {
          "internalType": "uint256",
          "name": "",
          "type": "uint256"
        }
      ],
      "stateMutability": "view",
      "type": "function",
      "constant": true
    },
    {
      "inputs": [],
      "name": "govTokenBalance",
      "outputs": [
        {
          "internalType": "uint256",
          "name": "",
          "type": "uint256"
        }
      ],
      "stateMutability": "view",
      "type": "function",
      "constant": true
    },
    {
      "inputs": [
        {
          "internalType": "uint256",
          "name": "amount",
          "type": "uint256"
        }
      ],
      "name": "deposit",
      "outputs": [],
      "stateMutability": "nonpayable",
      "type": "function"
    },
    {
      "inputs": [
        {
          "internalType": "uint256",
          "name": "amount",
          "type": "uint256"
        }
      ],
      "name": "withdraw",
      "outputs": [],
      "stateMutability": "nonpayable",
      "type": "function"
    }
  ],
  "bytecode": "0x60806040523480156200001157600080fd5b506040516200291c3803806200291c833981810160405281019062000037919062000228565b6040518060400160405280600381526020017f4c544b00000000000000000000000000000000000000000000000000000000008152506040518060400160405280600881526020017f4c5020546f6b656e0000000000000000000000000000000000000000000000008152508160039080519060200190620000bb92919062000161565b508060049080519060200190620000d492919062000161565b50505081600860006101000a81548173ffffffffffffffffffffffffffffffffffffffff021916908373ffffffffffffffffffffffffffffffffffffffff16021790555080600960006101000a81548173ffffffffffffffffffffffffffffffffffffffff021916908373ffffffffffffffffffffffffffffffffffffffff16021790555050506200031c565b8280546200016f906200029d565b90600052602060002090601f016020900481019282620001935760008555620001df565b82601f10620001ae57805160ff1916838001178555620001df565b82800160010185558215620001df579182015b82811115620001de578251825591602001919060010190620001c1565b5b509050620001ee9190620001f2565b5090565b5b808211156200020d576000816000905550600101620001f3565b5090565b600081519050620002228162000302565b92915050565b600080604083850312156200023c57600080fd5b60006200024c8582860162000211565b92505060206200025f8582860162000211565b9150509250929050565b600062000276826200027d565b9050919050565b600073ffffffffffffffffffffffffffffffffffffffff82169050919050565b60006002820490506001821680620002b657607f821691505b60208210811415620002cd57620002cc620002d3565b5b50919050565b7f4e487b7100000000000000000000000000000000000000000000000000000000600052602260045260246000fd5b6200030d8162000269565b81146200031957600080fd5b50565b6125f0806200032c6000396000f3fe608060405234801561001057600080fd5b50600436106101415760003560e01c806370a08231116100b8578063b6b55f251161007c578063b6b55f25146103a2578063dbb51d6e146103be578063dd62ed3e146103ee578063ecfb49a31461041e578063f8ce94041461043c578063f96dae0a1461045a57610141565b806370a08231146102d657806395d89b4114610306578063975532dc14610324578063a457c2d714610342578063a9059cbb1461037257610141565b80632495a5991161010a5780632495a599146102005780632875ee581461021e5780632e1a7d4d1461023c578063313ce56714610258578063365b98b21461027657806339509351146102a657610141565b8062ce8e3e1461014657806306fdde0314610164578063095ea7b31461018257806318160ddd146101b257806323b872dd146101d0575b600080fd5b61014e610478565b60405161015b9190611d3e565b60405180910390f35b61016c610506565b6040516101799190611db1565b60405180910390f35b61019c60048036038101906101979190611950565b610598565b6040516101a99190611d60565b60405180910390f35b6101ba6105b6565b6040516101c79190611f53565b60405180910390f35b6101ea60048036038101906101e59190611901565b6105c0565b6040516101f79190611d60565b60405180910390f35b6102086106c1565b6040516102159190611d96565b60405180910390f35b6102266106e7565b6040516102339190611f53565b60405180910390f35b610256600480360381019061025191906119b5565b610799565b005b6102606108c5565b60405161026d9190611f6e565b60405180910390f35b610290600480360381019061028b91906119b5565b6108ce565b60405161029d9190611cc3565b60405180910390f35b6102c060048036038101906102bb9190611950565b61090d565b6040516102cd9190611d60565b60405180910390f35b6102f060048036038101906102eb919061189c565b6109b9565b6040516102fd9190611f53565b60405180910390f35b61030e610a01565b60405161031b9190611db1565b60405180910390f35b61032c610a93565b6040516103399190611f53565b60405180910390f35b61035c60048036038101906103579190611950565b610a98565b6040516103699190611d60565b60405180910390f35b61038c60048036038101906103879190611950565b610b8c565b6040516103999190611d60565b60405180910390f35b6103bc60048036038101906103b791906119b5565b610baa565b005b6103d860048036038101906103d3919061189c565b610dc0565b6040516103e59190611f53565b60405180910390f35b610408600480360381019061040391906118c5565b610dd8565b6040516104159190611f53565b60405180910390f35b610426610e5f565b6040516104339190611f53565b60405180910390f35b610444610e65565b6040516104519190611f53565b60405180910390f35b610462610f17565b60405161046f9190611d7b565b60405180910390f35b606060068054806020026020016040519081016040528092919081815260200182805480156104fc57602002820191906000526020600020905b8160009054906101000a900473ffffffffffffffffffffffffffffffffffffffff1673ffffffffffffffffffffffffffffffffffffffff16815260200190600101908083116104b2575b5050505050905090565b60606003805461051590612192565b80601f016020809104026020016040519081016040528092919081815260200182805461054190612192565b801561058e5780601f106105635761010080835404028352916020019161058e565b820191906000526020600020905b81548152906001019060200180831161057157829003601f168201915b5050505050905090565b60006105ac6105a5610f3d565b8484610f45565b6001905092915050565b6000600254905090565b60006105cd848484611110565b6000600160008673ffffffffffffffffffffffffffffffffffffffff1673ffffffffffffffffffffffffffffffffffffffff1681526020019081526020016000206000610618610f3d565b73ffffffffffffffffffffffffffffffffffffffff1673ffffffffffffffffffffffffffffffffffffffff16815260200190815260200160002054905082811015610698576040517f08c379a000000000000000000000000000000000000000000000000000000000815260040161068f90611e93565b60405180910390fd5b6106b5856106a4610f3d565b85846106b0919061208e565b610f45565b60019150509392505050565b600860009054906101000a900473ffffffffffffffffffffffffffffffffffffffff1681565b6000600860009054906101000a900473ffffffffffffffffffffffffffffffffffffffff1673ffffffffffffffffffffffffffffffffffffffff166370a08231336040518263ffffffff1660e01b81526004016107449190611cc3565b60206040518083038186803b15801561075c57600080fd5b505afa158015610770573d6000803e3d6000fd5b505050506040513d601f19601f8201168201806040525081019061079491906119de565b905090565b806107a3336109b9565b10156107e4576040517f08c379a00000000000000000000000000000000000000000000000000000000081526004016107db90611e73565b60405180910390fd5b6107ed3361138f565b600860009054906101000a900473ffffffffffffffffffffffffffffffffffffffff1673ffffffffffffffffffffffffffffffffffffffff1663a9059cbb33836040518363ffffffff1660e01b815260040161084a929190611d15565b602060405180830381600087803b15801561086457600080fd5b505af1158015610878573d6000803e3d6000fd5b505050506040513d601f19601f8201168201806040525081019061089c919061198c565b506108b2816007546114ef90919063ffffffff16565b6007819055506108c23382611505565b50565b60006012905090565b600681815481106108de57600080fd5b906000526020600020016000915054906101000a900473ffffffffffffffffffffffffffffffffffffffff1681565b60006109af61091a610f3d565b848460016000610928610f3d565b73ffffffffffffffffffffffffffffffffffffffff1673ffffffffffffffffffffffffffffffffffffffff16815260200190815260200160002060008873ffffffffffffffffffffffffffffffffffffffff1673ffffffffffffffffffffffffffffffffffffffff168152602001908152602001600020546109aa9190611fde565b610f45565b6001905092915050565b60008060008373ffffffffffffffffffffffffffffffffffffffff1673ffffffffffffffffffffffffffffffffffffffff168152602001908152602001600020549050919050565b606060048054610a1090612192565b80601f0160208091040260200160405190810160405280929190818152602001828054610a3c90612192565b8015610a895780601f10610a5e57610100808354040283529160200191610a89565b820191906000526020600020905b815481529060010190602001808311610a6c57829003601f168201915b5050505050905090565b600181565b60008060016000610aa7610f3d565b73ffffffffffffffffffffffffffffffffffffffff1673ffffffffffffffffffffffffffffffffffffffff16815260200190815260200160002060008573ffffffffffffffffffffffffffffffffffffffff1673ffffffffffffffffffffffffffffffffffffffff16815260200190815260200160002054905082811015610b64576040517f08c379a0000000000000000000000000000000000000000000000000000000008152600401610b5b90611f13565b60405180910390fd5b610b81610b6f610f3d565b858584610b7c919061208e565b610f45565b600191505092915050565b6000610ba0610b99610f3d565b8484611110565b6001905092915050565b60008111610bed576040517f08c379a0000000000000000000000000000000000000000000000000000000008152600401610be490611e53565b60405180910390fd5b6000600560003373ffffffffffffffffffffffffffffffffffffffff1673ffffffffffffffffffffffffffffffffffffffff168152602001908152602001600020541415610cdd5743600560003373ffffffffffffffffffffffffffffffffffffffff1673ffffffffffffffffffffffffffffffffffffffff168152602001908152602001600020819055506006339080600181540180825580915050600190039060005260206000200160009091909190916101000a81548173ffffffffffffffffffffffffffffffffffffffff021916908373ffffffffffffffffffffffffffffffffffffffff1602179055505b610ce63361138f565b600860009054906101000a900473ffffffffffffffffffffffffffffffffffffffff1673ffffffffffffffffffffffffffffffffffffffff166323b872dd3330846040518463ffffffff1660e01b8152600401610d4593929190611cde565b602060405180830381600087803b158015610d5f57600080fd5b505af1158015610d73573d6000803e3d6000fd5b505050506040513d601f19601f82011682018060405250810190610d97919061198c565b50610dad816007546116d990919063ffffffff16565b600781905550610dbd33826116ef565b50565b60056020528060005260406000206000915090505481565b6000600160008473ffffffffffffffffffffffffffffffffffffffff1673ffffffffffffffffffffffffffffffffffffffff16815260200190815260200160002060008373ffffffffffffffffffffffffffffffffffffffff1673ffffffffffffffffffffffffffffffffffffffff16815260200190815260200160002054905092915050565b60075481565b6000600960009054906101000a900473ffffffffffffffffffffffffffffffffffffffff1673ffffffffffffffffffffffffffffffffffffffff166370a08231336040518263ffffffff1660e01b8152600401610ec29190611cc3565b60206040518083038186803b158015610eda57600080fd5b505afa158015610eee573d6000803e3d6000fd5b505050506040513d601f19601f82011682018060405250810190610f1291906119de565b905090565b600960009054906101000a900473ffffffffffffffffffffffffffffffffffffffff1681565b600033905090565b600073ffffffffffffffffffffffffffffffffffffffff168373ffffffffffffffffffffffffffffffffffffffff161415610fb5576040517f08c379a0000000000000000000000000000000000000000000000000000000008152600401610fac90611ef3565b60405180910390fd5b600073ffffffffffffffffffffffffffffffffffffffff168273ffffffffffffffffffffffffffffffffffffffff161415611025576040517f08c379a000000000000000000000000000000000000000000000000000000000815260040161101c90611e13565b60405180910390fd5b80600160008573ffffffffffffffffffffffffffffffffffffffff1673ffffffffffffffffffffffffffffffffffffffff16815260200190815260200160002060008473ffffffffffffffffffffffffffffffffffffffff1673ffffffffffffffffffffffffffffffffffffffff168152602001908152602001600020819055508173ffffffffffffffffffffffffffffffffffffffff168373ffffffffffffffffffffffffffffffffffffffff167f8c5be1e5ebec7d5bd14f71427d1e84f3dd0314c0f7b2291e5b200ac8c7c3b925836040516111039190611f53565b60405180910390a3505050565b600073ffffffffffffffffffffffffffffffffffffffff168373ffffffffffffffffffffffffffffffffffffffff161415611180576040517f08c379a000000000000000000000000000000000000000000000000000000000815260040161117790611ed3565b60405180910390fd5b600073ffffffffffffffffffffffffffffffffffffffff168273ffffffffffffffffffffffffffffffffffffffff1614156111f0576040517f08c379a00000000000000000000000000000000000000000000000000000000081526004016111e790611dd3565b60405180910390fd5b6111fb838383611843565b60008060008573ffffffffffffffffffffffffffffffffffffffff1673ffffffffffffffffffffffffffffffffffffffff16815260200190815260200160002054905081811015611281576040517f08c379a000000000000000000000000000000000000000000000000000000000815260040161127890611e33565b60405180910390fd5b818161128d919061208e565b6000808673ffffffffffffffffffffffffffffffffffffffff1673ffffffffffffffffffffffffffffffffffffffff16815260200190815260200160002081905550816000808573ffffffffffffffffffffffffffffffffffffffff1673ffffffffffffffffffffffffffffffffffffffff168152602001908152602001600020600082825461131d9190611fde565b925050819055508273ffffffffffffffffffffffffffffffffffffffff168473ffffffffffffffffffffffffffffffffffffffff167fddf252ad1be2c89b69c2b068fc378daa952ba7f163c4a11628f55a4df523b3ef846040516113819190611f53565b60405180910390a350505050565b6000600560008373ffffffffffffffffffffffffffffffffffffffff1673ffffffffffffffffffffffffffffffffffffffff168152602001908152602001600020549050600081436113e1919061208e565b11156114eb5760006001826113f69190612034565b43611401919061208e565b61140a846109b9565b6114149190612034565b9050600960009054906101000a900473ffffffffffffffffffffffffffffffffffffffff1673ffffffffffffffffffffffffffffffffffffffff166340c10f1984836040518363ffffffff1660e01b8152600401611473929190611d15565b600060405180830381600087803b15801561148d57600080fd5b505af11580156114a1573d6000803e3d6000fd5b5050505043600560008573ffffffffffffffffffffffffffffffffffffffff1673ffffffffffffffffffffffffffffffffffffffff16815260200190815260200160002081905550505b5050565b600081836114fd919061208e565b905092915050565b600073ffffffffffffffffffffffffffffffffffffffff168273ffffffffffffffffffffffffffffffffffffffff161415611575576040517f08c379a000000000000000000000000000000000000000000000000000000000815260040161156c90611eb3565b60405180910390fd5b61158182600083611843565b60008060008473ffffffffffffffffffffffffffffffffffffffff1673ffffffffffffffffffffffffffffffffffffffff16815260200190815260200160002054905081811015611607576040517f08c379a00000000000000000000000000000000000000000000000000000000081526004016115fe90611df3565b60405180910390fd5b8181611613919061208e565b6000808573ffffffffffffffffffffffffffffffffffffffff1673ffffffffffffffffffffffffffffffffffffffff168152602001908152602001600020819055508160026000828254611667919061208e565b92505081905550600073ffffffffffffffffffffffffffffffffffffffff168373ffffffffffffffffffffffffffffffffffffffff167fddf252ad1be2c89b69c2b068fc378daa952ba7f163c4a11628f55a4df523b3ef846040516116cc9190611f53565b60405180910390a3505050565b600081836116e79190611fde565b905092915050565b600073ffffffffffffffffffffffffffffffffffffffff168273ffffffffffffffffffffffffffffffffffffffff16141561175f576040517f08c379a000000000000000000000000000000000000000000000000000000000815260040161175690611f33565b60405180910390fd5b61176b60008383611843565b806002600082825461177d9190611fde565b92505081905550806000808473ffffffffffffffffffffffffffffffffffffffff1673ffffffffffffffffffffffffffffffffffffffff16815260200190815260200160002060008282546117d29190611fde565b925050819055508173ffffffffffffffffffffffffffffffffffffffff16600073ffffffffffffffffffffffffffffffffffffffff167fddf252ad1be2c89b69c2b068fc378daa952ba7f163c4a11628f55a4df523b3ef836040516118379190611f53565b60405180910390a35050565b505050565b60008135905061185781612575565b92915050565b60008151905061186c8161258c565b92915050565b600081359050611881816125a3565b92915050565b600081519050611896816125a3565b92915050565b6000602082840312156118ae57600080fd5b60006118bc84828501611848565b91505092915050565b600080604083850312156118d857600080fd5b60006118e685828601611848565b92505060206118f785828601611848565b9150509250929050565b60008060006060848603121561191657600080fd5b600061192486828701611848565b935050602061193586828701611848565b925050604061194686828701611872565b9150509250925092565b6000806040838503121561196357600080fd5b600061197185828601611848565b925050602061198285828601611872565b9150509250929050565b60006020828403121561199e57600080fd5b60006119ac8482850161185d565b91505092915050565b6000602082840312156119c757600080fd5b60006119d584828501611872565b91505092915050565b6000602082840312156119f057600080fd5b60006119fe84828501611887565b91505092915050565b6000611a138383611a1f565b60208301905092915050565b611a28816120c2565b82525050565b611a37816120c2565b82525050565b6000611a4882611f99565b611a528185611fbc565b9350611a5d83611f89565b8060005b83811015611a8e578151611a758882611a07565b9750611a8083611faf565b925050600181019050611a61565b5085935050505092915050565b611aa4816120d4565b82525050565b611ab381612117565b82525050565b611ac28161213b565b82525050565b6000611ad382611fa4565b611add8185611fcd565b9350611aed81856020860161215f565b611af681612222565b840191505092915050565b6000611b0e602383611fcd565b9150611b1982612233565b604082019050919050565b6000611b31602283611fcd565b9150611b3c82612282565b604082019050919050565b6000611b54602283611fcd565b9150611b5f826122d1565b604082019050919050565b6000611b77602683611fcd565b9150611b8282612320565b604082019050919050565b6000611b9a601d83611fcd565b9150611ba58261236f565b602082019050919050565b6000611bbd601383611fcd565b9150611bc882612398565b602082019050919050565b6000611be0602883611fcd565b9150611beb826123c1565b604082019050919050565b6000611c03602183611fcd565b9150611c0e82612410565b604082019050919050565b6000611c26602583611fcd565b9150611c318261245f565b604082019050919050565b6000611c49602483611fcd565b9150611c54826124ae565b604082019050919050565b6000611c6c602583611fcd565b9150611c77826124fd565b604082019050919050565b6000611c8f601f83611fcd565b9150611c9a8261254c565b602082019050919050565b611cae81612100565b82525050565b611cbd8161210a565b82525050565b6000602082019050611cd86000830184611a2e565b92915050565b6000606082019050611cf36000830186611a2e565b611d006020830185611a2e565b611d0d6040830184611ca5565b949350505050565b6000604082019050611d2a6000830185611a2e565b611d376020830184611ca5565b9392505050565b60006020820190508181036000830152611d588184611a3d565b905092915050565b6000602082019050611d756000830184611a9b565b92915050565b6000602082019050611d906000830184611aaa565b92915050565b6000602082019050611dab6000830184611ab9565b92915050565b60006020820190508181036000830152611dcb8184611ac8565b905092915050565b60006020820190508181036000830152611dec81611b01565b9050919050565b60006020820190508181036000830152611e0c81611b24565b9050919050565b60006020820190508181036000830152611e2c81611b47565b9050919050565b60006020820190508181036000830152611e4c81611b6a565b9050919050565b60006020820190508181036000830152611e6c81611b8d565b9050919050565b60006020820190508181036000830152611e8c81611bb0565b9050919050565b60006020820190508181036000830152611eac81611bd3565b9050919050565b60006020820190508181036000830152611ecc81611bf6565b9050919050565b60006020820190508181036000830152611eec81611c19565b9050919050565b60006020820190508181036000830152611f0c81611c3c565b9050919050565b60006020820190508181036000830152611f2c81611c5f565b9050919050565b60006020820190508181036000830152611f4c81611c82565b9050919050565b6000602082019050611f686000830184611ca5565b92915050565b6000602082019050611f836000830184611cb4565b92915050565b6000819050602082019050919050565b600081519050919050565b600081519050919050565b6000602082019050919050565b600082825260208201905092915050565b600082825260208201905092915050565b6000611fe982612100565b9150611ff483612100565b9250827fffffffffffffffffffffffffffffffffffffffffffffffffffffffffffffffff03821115612029576120286121c4565b5b828201905092915050565b600061203f82612100565b915061204a83612100565b9250817fffffffffffffffffffffffffffffffffffffffffffffffffffffffffffffffff0483118215151615612083576120826121c4565b5b828202905092915050565b600061209982612100565b91506120a483612100565b9250828210156120b7576120b66121c4565b5b828203905092915050565b60006120cd826120e0565b9050919050565b60008115159050919050565b600073ffffffffffffffffffffffffffffffffffffffff82169050919050565b6000819050919050565b600060ff82169050919050565b600061212282612129565b9050919050565b6000612134826120e0565b9050919050565b60006121468261214d565b9050919050565b6000612158826120e0565b9050919050565b60005b8381101561217d578082015181840152602081019050612162565b8381111561218c576000848401525b50505050565b600060028204905060018216806121aa57607f821691505b602082108114156121be576121bd6121f3565b5b50919050565b7f4e487b7100000000000000000000000000000000000000000000000000000000600052601160045260246000fd5b7f4e487b7100000000000000000000000000000000000000000000000000000000600052602260045260246000fd5b6000601f19601f8301169050919050565b7f45524332303a207472616e7366657220746f20746865207a65726f206164647260008201527f6573730000000000000000000000000000000000000000000000000000000000602082015250565b7f45524332303a206275726e20616d6f756e7420657863656564732062616c616e60008201527f6365000000000000000000000000000000000000000000000000000000000000602082015250565b7f45524332303a20617070726f766520746f20746865207a65726f20616464726560008201527f7373000000000000000000000000000000000000000000000000000000000000602082015250565b7f45524332303a207472616e7366657220616d6f756e742065786365656473206260008201527f616c616e63650000000000000000000000000000000000000000000000000000602082015250565b7f616d6f756e74206d7573742062652067726561746572207468616e2030000000600082015250565b7f6e6f7420656e6f756768204c5020746f6b656e00000000000000000000000000600082015250565b7f45524332303a207472616e7366657220616d6f756e742065786365656473206160008201527f6c6c6f77616e6365000000000000000000000000000000000000000000000000602082015250565b7f45524332303a206275726e2066726f6d20746865207a65726f2061646472657360008201527f7300000000000000000000000000000000000000000000000000000000000000602082015250565b7f45524332303a207472616e736665722066726f6d20746865207a65726f20616460008201527f6472657373000000000000000000000000000000000000000000000000000000602082015250565b7f45524332303a20617070726f76652066726f6d20746865207a65726f2061646460008201527f7265737300000000000000000000000000000000000000000000000000000000602082015250565b7f45524332303a2064656372656173656420616c6c6f77616e63652062656c6f7760008201527f207a65726f000000000000000000000000000000000000000000000000000000602082015250565b7f45524332303a206d696e7420746f20746865207a65726f206164647265737300600082015250565b61257e816120c2565b811461258957600080fd5b50565b612595816120d4565b81146125a057600080fd5b50565b6125ac81612100565b81146125b757600080fd5b5056fea264697066735822122087ec503a3434b95b7515b9f8a6d08149e27cd462ade525f9b50dd277dd98c37164736f6c63430008030033",
  "immutableReferences": {},
  "source": "// SPDX-License-Identifier: UNLICENSED\npragma solidity ^0.8.0;\n\nimport \"./UnderlyingToken.sol\";\nimport \"./LpToken.sol\";\nimport \"./GovernanceToken.sol\";\nimport \"@openzeppelin/contracts/utils/math/SafeMath.sol\";\n\ncontract LiquidityPool is LpToken {\n    using SafeMath for uint256;\n\n    mapping(address => uint256) public checkpoints; //this will be used to calculate the governance token\n    address[] public users;\n    uint256 public totalPool;\n\n    // create pointers\n    UnderlyingToken public underlyingToken;\n    GovernanceToken public governanceToken;\n    uint256 public constant REWARD_PER_BLOCK = 1;\n\n    constructor(address _underlyingToken, address _governanceToken) {\n        // instantiate our pointers. This will help us communicate with teh contracts\n        underlyingToken = UnderlyingToken(_underlyingToken);\n        governanceToken = GovernanceToken(_governanceToken);\n    }\n\n    //returns the checkpoints\n    function getUsers() external view returns (address[] memory) {\n        return users;\n    }\n\n    //returns the underlying token balance of user\n    function underTokenBalance() external view returns (uint256) {\n        return underlyingToken.balanceOf(msg.sender);\n    }\n\n    function govTokenBalance() external view returns (uint256) {\n        return governanceToken.balanceOf(msg.sender);\n    }\n\n    function deposit(uint256 amount) external {\n        // checkpoints are used as a reference to distribute the governance token reward.\n        // Example, if an investor invests at block 10 and withdraws t block 50 then he'll be given a token equivalent to 5 blocks\n        require(amount > 0, \"amount must be greater than 0\");\n        if (checkpoints[msg.sender] == 0) {\n            checkpoints[msg.sender] = block.number;\n            users.push(msg.sender);\n        }\n        _distributeReward(msg.sender);\n        underlyingToken.transferFrom(msg.sender, address(this), amount);\n        totalPool = totalPool.add(amount);\n        // mint some LpToken for the investor\n        _mint(msg.sender, amount);\n    }\n\n    function withdraw(uint256 amount) external {\n        // here the amount is for user LpToken\n        require(balanceOf(msg.sender) >= amount, \"not enough LP token\");\n        _distributeReward(msg.sender);\n        underlyingToken.transfer(msg.sender, amount);\n        totalPool = totalPool.sub(amount);\n        _burn(msg.sender, amount);\n    }\n\n    //we base our distribution amount on the balance of LpToken\n    //Note: In this project the exchange rate between the LpToken and the underlying token is always 1, but in a real DeFi protocol it is much more complex than that (You may have to multiply the LpToken balance by the exchange rate to get the balance in underlying token)\n    function _distributeReward(address beneficiary) internal {\n        // get the checkpoint of the beneficiary\n        uint256 checkpoint = checkpoints[beneficiary];\n        if (block.number - checkpoint > 0) {\n            uint256 distributionAmount =\n                balanceOf(beneficiary) *\n                    (block.number - checkpoint * REWARD_PER_BLOCK);\n            governanceToken.mint(beneficiary, distributionAmount);\n\n            // update the checkpoint\n            checkpoints[beneficiary] = block.number;\n        }\n    }\n}\n",
  "sourcePath": "/var/www/html/ETB_updated/ETb_flair/Liquidity_Mining/contracts/LiquidityPool.sol",
  "compiler": {
    "name": "solc",
    "version": "0.8.3+commit.8d00100c.Emscripten.clang"
  },
  "schemaVersion": "3.3.4",
  "updatedAt": "2021-04-14T19:11:53.730Z",
  "networkType": "ethereum",
  "devdoc": {
    "kind": "dev",
    "methods": {
      "allowance(address,address)": {
        "details": "See {IERC20-allowance}."
      },
      "approve(address,uint256)": {
        "details": "See {IERC20-approve}. Requirements: - `spender` cannot be the zero address."
      },
      "balanceOf(address)": {
        "details": "See {IERC20-balanceOf}."
      },
      "decimals()": {
        "details": "Returns the number of decimals used to get its user representation. For example, if `decimals` equals `2`, a balance of `505` tokens should be displayed to a user as `5,05` (`505 / 10 ** 2`). Tokens usually opt for a value of 18, imitating the relationship between Ether and Wei. This is the value {ERC20} uses, unless this function is overloaded; NOTE: This information is only used for _display_ purposes: it in no way affects any of the arithmetic of the contract, including {IERC20-balanceOf} and {IERC20-transfer}."
      },
      "decreaseAllowance(address,uint256)": {
        "details": "Atomically decreases the allowance granted to `spender` by the caller. This is an alternative to {approve} that can be used as a mitigation for problems described in {IERC20-approve}. Emits an {Approval} event indicating the updated allowance. Requirements: - `spender` cannot be the zero address. - `spender` must have allowance for the caller of at least `subtractedValue`."
      },
      "increaseAllowance(address,uint256)": {
        "details": "Atomically increases the allowance granted to `spender` by the caller. This is an alternative to {approve} that can be used as a mitigation for problems described in {IERC20-approve}. Emits an {Approval} event indicating the updated allowance. Requirements: - `spender` cannot be the zero address."
      },
      "name()": {
        "details": "Returns the name of the token."
      },
      "symbol()": {
        "details": "Returns the symbol of the token, usually a shorter version of the name."
      },
      "totalSupply()": {
        "details": "See {IERC20-totalSupply}."
      },
      "transfer(address,uint256)": {
        "details": "See {IERC20-transfer}. Requirements: - `recipient` cannot be the zero address. - the caller must have a balance of at least `amount`."
      },
      "transferFrom(address,address,uint256)": {
        "details": "See {IERC20-transferFrom}. Emits an {Approval} event indicating the updated allowance. This is not required by the EIP. See the note at the beginning of {ERC20}. Requirements: - `sender` and `recipient` cannot be the zero address. - `sender` must have a balance of at least `amount`. - the caller must have allowance for ``sender``'s tokens of at least `amount`."
      }
    },
    "version": 1
  },
  "userdoc": {
    "kind": "user",
    "methods": {},
    "version": 1
  }
}